{
  "contractName": "nUSD",
  "abi": [
    {
      "inputs": [
        {
          "internalType": "address",
          "name": "_priceFeed",
          "type": "address"
        }
      ],
      "stateMutability": "nonpayable",
      "type": "constructor"
    },
    {
      "anonymous": false,
      "inputs": [
        {
          "indexed": true,
          "internalType": "address",
          "name": "user",
          "type": "address"
        },
        {
          "indexed": false,
          "internalType": "uint256",
          "name": "amount",
          "type": "uint256"
        }
      ],
      "name": "Deposit",
      "type": "event"
    },
    {
      "anonymous": false,
      "inputs": [
        {
          "indexed": true,
          "internalType": "address",
          "name": "user",
          "type": "address"
        },
        {
          "indexed": false,
          "internalType": "uint256",
          "name": "amount",
          "type": "uint256"
        }
      ],
      "name": "Redeem",
      "type": "event"
    },
    {
      "inputs": [
        {
          "internalType": "address",
          "name": "",
          "type": "address"
        }
      ],
      "name": "balanceOf",
      "outputs": [
        {
          "internalType": "uint256",
          "name": "",
          "type": "uint256"
        }
      ],
      "stateMutability": "view",
      "type": "function"
    },
    {
      "inputs": [],
      "name": "decimals",
      "outputs": [
        {
          "internalType": "uint8",
          "name": "",
          "type": "uint8"
        }
      ],
      "stateMutability": "view",
      "type": "function"
    },
    {
      "inputs": [],
      "name": "name",
      "outputs": [
        {
          "internalType": "string",
          "name": "",
          "type": "string"
        }
      ],
      "stateMutability": "view",
      "type": "function"
    },
    {
      "inputs": [],
      "name": "symbol",
      "outputs": [
        {
          "internalType": "string",
          "name": "",
          "type": "string"
        }
      ],
      "stateMutability": "view",
      "type": "function"
    },
    {
      "inputs": [],
      "name": "totalSupply",
      "outputs": [
        {
          "internalType": "uint256",
          "name": "",
          "type": "uint256"
        }
      ],
      "stateMutability": "view",
      "type": "function"
    },
    {
      "inputs": [
        {
          "internalType": "uint256",
          "name": "ethAmount",
          "type": "uint256"
        }
      ],
      "name": "deposit",
      "outputs": [],
      "stateMutability": "nonpayable",
      "type": "function"
    },
    {
      "inputs": [
        {
          "internalType": "uint256",
          "name": "nUsdAmount",
          "type": "uint256"
        }
      ],
      "name": "redeem",
      "outputs": [],
      "stateMutability": "nonpayable",
      "type": "function"
    },
    {
      "inputs": [
        {
          "internalType": "address",
          "name": "_priceFeed",
          "type": "address"
        }
      ],
      "name": "updatePriceFeed",
      "outputs": [],
      "stateMutability": "nonpayable",
      "type": "function"
    },
    {
      "inputs": [
        {
          "internalType": "uint256",
          "name": "nUsdAmount",
          "type": "uint256"
        }
      ],
      "name": "getETHValue",
      "outputs": [
        {
          "internalType": "uint256",
          "name": "",
          "type": "uint256"
        }
      ],
      "stateMutability": "view",
      "type": "function"
    }
  ],
  "bytecode": "0x60806040526040518060400160405280600481526020017f6e555344000000000000000000000000000000000000000000000000000000008152505f908162000049919062000389565b506040518060400160405280600481526020017f6e555344000000000000000000000000000000000000000000000000000000008152506001908162000090919062000389565b50601260025f6101000a81548160ff021916908360ff160217905550348015620000b8575f80fd5b506040516200122b3803806200122b8339818101604052810190620000de9190620004d2565b8060055f6101000a81548173ffffffffffffffffffffffffffffffffffffffff021916908373ffffffffffffffffffffffffffffffffffffffff1602179055505062000502565b5f81519050919050565b7f4e487b71000000000000000000000000000000000000000000000000000000005f52604160045260245ffd5b7f4e487b71000000000000000000000000000000000000000000000000000000005f52602260045260245ffd5b5f6002820490506001821680620001a157607f821691505b602082108103620001b757620001b66200015c565b5b50919050565b5f819050815f5260205f209050919050565b5f6020601f8301049050919050565b5f82821b905092915050565b5f600883026200021b7fffffffffffffffffffffffffffffffffffffffffffffffffffffffffffffffff82620001de565b620002278683620001de565b95508019841693508086168417925050509392505050565b5f819050919050565b5f819050919050565b5f620002716200026b62000265846200023f565b62000248565b6200023f565b9050919050565b5f819050919050565b6200028c8362000251565b620002a46200029b8262000278565b848454620001ea565b825550505050565b5f90565b620002ba620002ac565b620002c781848462000281565b505050565b5b81811015620002ee57620002e25f82620002b0565b600181019050620002cd565b5050565b601f8211156200033d576200030781620001bd565b6200031284620001cf565b8101602085101562000322578190505b6200033a6200033185620001cf565b830182620002cc565b50505b505050565b5f82821c905092915050565b5f6200035f5f198460080262000342565b1980831691505092915050565b5f6200037983836200034e565b9150826002028217905092915050565b620003948262000125565b67ffffffffffffffff811115620003b057620003af6200012f565b5b620003bc825462000189565b620003c9828285620002f2565b5f60209050601f831160018114620003ff575f8415620003ea578287015190505b620003f685826200036c565b86555062000465565b601f1984166200040f86620001bd565b5f5b82811015620004385784890151825560018201915060208501945060208101905062000411565b8683101562000458578489015162000454601f8916826200034e565b8355505b6001600288020188555050505b505050505050565b5f80fd5b5f73ffffffffffffffffffffffffffffffffffffffff82169050919050565b5f6200049c8262000471565b9050919050565b620004ae8162000490565b8114620004b9575f80fd5b50565b5f81519050620004cc81620004a3565b92915050565b5f60208284031215620004ea57620004e96200046d565b5b5f620004f984828501620004bc565b91505092915050565b610d1b80620005105f395ff3fe608060405234801561000f575f80fd5b5060043610610091575f3560e01c806395877f781161006457806395877f781461011f57806395d89b411461013b578063b6b55f2514610159578063d5bda32d14610175578063db006a75146101a557610091565b806306fdde031461009557806318160ddd146100b3578063313ce567146100d157806370a08231146100ef575b5f80fd5b61009d6101c1565b6040516100aa91906107bf565b60405180910390f35b6100bb61024c565b6040516100c891906107f7565b60405180910390f35b6100d9610252565b6040516100e6919061082b565b60405180910390f35b610109600480360381019061010491906108a2565b610264565b60405161011691906107f7565b60405180910390f35b610139600480360381019061013491906108a2565b610279565b005b6101436102bc565b60405161015091906107bf565b60405180910390f35b610173600480360381019061016e91906108f7565b610348565b005b61018f600480360381019061018a91906108f7565b610457565b60405161019c91906107f7565b60405180910390f35b6101bf60048036038101906101ba91906108f7565b610483565b005b5f80546101cd9061094f565b80601f01602080910402602001604051908101604052809291908181526020018280546101f99061094f565b80156102445780601f1061021b57610100808354040283529160200191610244565b820191905f5260205f20905b81548152906001019060200180831161022757829003601f168201915b505050505081565b60045481565b60025f9054906101000a900460ff1681565b6003602052805f5260405f205f915090505481565b8060055f6101000a81548173ffffffffffffffffffffffffffffffffffffffff021916908373ffffffffffffffffffffffffffffffffffffffff16021790555050565b600180546102c99061094f565b80601f01602080910402602001604051908101604052809291908181526020018280546102f59061094f565b80156103405780601f1061031757610100808354040283529160200191610340565b820191905f5260205f20905b81548152906001019060200180831161032357829003601f168201915b505050505081565b5f811161038a576040517f08c379a0000000000000000000000000000000000000000000000000000000008152600401610381906109c9565b60405180910390fd5b5f6002826103989190610a41565b90508060035f3373ffffffffffffffffffffffffffffffffffffffff1673ffffffffffffffffffffffffffffffffffffffff1681526020019081526020015f205f8282546103e69190610a71565b925050819055508060045f8282546103fe9190610a71565b925050819055503373ffffffffffffffffffffffffffffffffffffffff167fe1fffcc4923d04b559f4d29a8bfc6cda04eb5b0d3c460751c2402c5c5cc9109c8360405161044b91906107f7565b60405180910390a25050565b5f80610461610656565b9050806002846104719190610aa4565b61047b9190610aa4565b915050919050565b5f81116104c5576040517f08c379a00000000000000000000000000000000000000000000000000000000081526004016104bc906109c9565b60405180910390fd5b8060035f3373ffffffffffffffffffffffffffffffffffffffff1673ffffffffffffffffffffffffffffffffffffffff1681526020019081526020015f20541015610545576040517f08c379a000000000000000000000000000000000000000000000000000000000815260040161053c90610b2f565b60405180910390fd5b5f6002826105539190610aa4565b90508160035f3373ffffffffffffffffffffffffffffffffffffffff1673ffffffffffffffffffffffffffffffffffffffff1681526020019081526020015f205f8282546105a19190610b4d565b925050819055508160045f8282546105b99190610b4d565b925050819055503373ffffffffffffffffffffffffffffffffffffffff166108fc8290811502906040515f60405180830381858888f19350505050158015610603573d5f803e3d5ffd5b503373ffffffffffffffffffffffffffffffffffffffff167f222838db2794d11532d940e8dec38ae307ed0b63cd97c233322e221f998767a68260405161064a91906107f7565b60405180910390a25050565b5f8060055f9054906101000a900473ffffffffffffffffffffffffffffffffffffffff1673ffffffffffffffffffffffffffffffffffffffff1663feaf968c6040518163ffffffff1660e01b815260040160a060405180830381865afa1580156106c2573d5f803e3d5ffd5b505050506040513d601f19601f820116820180604052508101906106e69190610c06565b5050509150505f811361072e576040517f08c379a000000000000000000000000000000000000000000000000000000000815260040161072590610cc7565b60405180910390fd5b8091505090565b5f81519050919050565b5f82825260208201905092915050565b5f5b8381101561076c578082015181840152602081019050610751565b5f8484015250505050565b5f601f19601f8301169050919050565b5f61079182610735565b61079b818561073f565b93506107ab81856020860161074f565b6107b481610777565b840191505092915050565b5f6020820190508181035f8301526107d78184610787565b905092915050565b5f819050919050565b6107f1816107df565b82525050565b5f60208201905061080a5f8301846107e8565b92915050565b5f60ff82169050919050565b61082581610810565b82525050565b5f60208201905061083e5f83018461081c565b92915050565b5f80fd5b5f73ffffffffffffffffffffffffffffffffffffffff82169050919050565b5f61087182610848565b9050919050565b61088181610867565b811461088b575f80fd5b50565b5f8135905061089c81610878565b92915050565b5f602082840312156108b7576108b6610844565b5b5f6108c48482850161088e565b91505092915050565b6108d6816107df565b81146108e0575f80fd5b50565b5f813590506108f1816108cd565b92915050565b5f6020828403121561090c5761090b610844565b5b5f610919848285016108e3565b91505092915050565b7f4e487b71000000000000000000000000000000000000000000000000000000005f52602260045260245ffd5b5f600282049050600182168061096657607f821691505b60208210810361097957610978610922565b5b50919050565b7f416d6f756e74206d7573742062652067726561746572207468616e207a65726f5f82015250565b5f6109b360208361073f565b91506109be8261097f565b602082019050919050565b5f6020820190508181035f8301526109e0816109a7565b9050919050565b7f4e487b71000000000000000000000000000000000000000000000000000000005f52601260045260245ffd5b7f4e487b71000000000000000000000000000000000000000000000000000000005f52601160045260245ffd5b5f610a4b826107df565b9150610a56836107df565b925082610a6657610a656109e7565b5b828204905092915050565b5f610a7b826107df565b9150610a86836107df565b9250828201905080821115610a9e57610a9d610a14565b5b92915050565b5f610aae826107df565b9150610ab9836107df565b9250828202610ac7816107df565b91508282048414831517610ade57610add610a14565b5b5092915050565b7f496e73756666696369656e74206e5553442062616c616e6365000000000000005f82015250565b5f610b1960198361073f565b9150610b2482610ae5565b602082019050919050565b5f6020820190508181035f830152610b4681610b0d565b9050919050565b5f610b57826107df565b9150610b62836107df565b9250828203905081811115610b7a57610b79610a14565b5b92915050565b5f69ffffffffffffffffffff82169050919050565b610b9e81610b80565b8114610ba8575f80fd5b50565b5f81519050610bb981610b95565b92915050565b5f819050919050565b610bd181610bbf565b8114610bdb575f80fd5b50565b5f81519050610bec81610bc8565b92915050565b5f81519050610c00816108cd565b92915050565b5f805f805f60a08688031215610c1f57610c1e610844565b5b5f610c2c88828901610bab565b9550506020610c3d88828901610bde565b9450506040610c4e88828901610bf2565b9350506060610c5f88828901610bf2565b9250506080610c7088828901610bab565b9150509295509295909350565b7f496e76616c6964207072696365206665656400000000000000000000000000005f82015250565b5f610cb160128361073f565b9150610cbc82610c7d565b602082019050919050565b5f6020820190508181035f830152610cde81610ca5565b905091905056fea2646970667358221220ddb90316a482b3462cf7ccf48044468f3f84a2ba573c1cdbc696d943c988718964736f6c63430008140033",
  "immutableReferences": {},
  "source": "// SPDX-License-Identifier: MIT\r\npragma solidity ^0.8.0;\r\n\r\nimport \"@chainlink/contracts/src/v0.8/interfaces/AggregatorV3Interface.sol\";\r\n\r\ncontract nUSD {\r\n    string public name = \"nUSD\";\r\n    string public symbol = \"nUSD\";\r\n    uint8 public decimals = 18;\r\n\r\n    mapping(address => uint256) public balanceOf;\r\n    uint256 public totalSupply;\r\n\r\n    AggregatorV3Interface internal priceFeed;\r\n\r\n    event Deposit(address indexed user, uint256 amount);\r\n    event Redeem(address indexed user, uint256 amount);\r\n\r\n    constructor(address _priceFeed) {\r\n        priceFeed = AggregatorV3Interface(_priceFeed);\r\n    }\r\n\r\n    function deposit(uint256 ethAmount) external {\r\n        require(ethAmount > 0, \"Amount must be greater than zero\");\r\n\r\n        uint256 nUsdAmount = ethAmount / 2;\r\n\r\n        balanceOf[msg.sender] += nUsdAmount;\r\n        totalSupply += nUsdAmount;\r\n\r\n        emit Deposit(msg.sender, ethAmount);\r\n    }\r\n\r\n    function redeem(uint256 nUsdAmount) external {\r\n        require(nUsdAmount > 0, \"Amount must be greater than zero\");\r\n        require(\r\n            balanceOf[msg.sender] >= nUsdAmount,\r\n            \"Insufficient nUSD balance\"\r\n        );\r\n\r\n        uint256 ethAmount = nUsdAmount * 2;\r\n\r\n        balanceOf[msg.sender] -= nUsdAmount;\r\n        totalSupply -= nUsdAmount;\r\n\r\n        payable(msg.sender).transfer(ethAmount);\r\n\r\n        emit Redeem(msg.sender, ethAmount);\r\n    }\r\n\r\n    function updatePriceFeed(address _priceFeed) external {\r\n        priceFeed = AggregatorV3Interface(_priceFeed);\r\n    }\r\n\r\n    function getETHPrice() internal view returns (uint256) {\r\n        (, int256 price, , , ) = priceFeed.latestRoundData();\r\n        require(price > 0, \"Invalid price feed\");\r\n        return uint256(price);\r\n    }\r\n\r\n    function getETHValue(uint256 nUsdAmount) public view returns (uint256) {\r\n        uint256 ethPrice = getETHPrice();\r\n        return nUsdAmount * 2 * ethPrice;\r\n    }\r\n}\r\n",
  "sourcePath": "D:\\Sol_assg\\contracts\\nUSD.sol",
  "compiler": {
    "name": "solc",
    "version": "0.8.20+commit.a1b79de6.Emscripten.clang"
  },
  "schemaVersion": "3.4.14",
  "updatedAt": "2023-06-28T19:57:52.450Z",
  "devdoc": {
    "kind": "dev",
    "methods": {},
    "version": 1
  },
  "userdoc": {
    "kind": "user",
    "methods": {},
    "version": 1
  }
}